{
  "contractName": "FreelanceMarketplace",
  "abi": [
    {
      "anonymous": false,
      "inputs": [
        {
          "indexed": false,
          "internalType": "uint256",
          "name": "id",
          "type": "uint256"
        },
        {
          "indexed": false,
          "internalType": "address",
          "name": "freelancer",
          "type": "address"
        }
      ],
      "name": "JobCompleted",
      "type": "event"
    },
    {
      "anonymous": false,
      "inputs": [
        {
          "indexed": false,
          "internalType": "uint256",
          "name": "id",
          "type": "uint256"
        },
        {
          "indexed": false,
          "internalType": "address",
          "name": "client",
          "type": "address"
        },
        {
          "indexed": false,
          "internalType": "uint256",
          "name": "price",
          "type": "uint256"
        }
      ],
      "name": "JobCreated",
      "type": "event"
    },
    {
      "anonymous": false,
      "inputs": [
        {
          "indexed": false,
          "internalType": "uint256",
          "name": "id",
          "type": "uint256"
        },
        {
          "indexed": false,
          "internalType": "address",
          "name": "freelancer",
          "type": "address"
        },
        {
          "indexed": false,
          "internalType": "uint256",
          "name": "amount",
          "type": "uint256"
        }
      ],
      "name": "JobPaid",
      "type": "event"
    },
    {
      "inputs": [],
      "name": "jobCount",
      "outputs": [
        {
          "internalType": "uint256",
          "name": "",
          "type": "uint256"
        }
      ],
      "stateMutability": "view",
      "type": "function",
      "constant": true
    },
    {
      "inputs": [
        {
          "internalType": "uint256",
          "name": "",
          "type": "uint256"
        }
      ],
      "name": "jobs",
      "outputs": [
        {
          "internalType": "uint256",
          "name": "id",
          "type": "uint256"
        },
        {
          "internalType": "address payable",
          "name": "freelancer",
          "type": "address"
        },
        {
          "internalType": "address payable",
          "name": "client",
          "type": "address"
        },
        {
          "internalType": "uint256",
          "name": "price",
          "type": "uint256"
        },
        {
          "internalType": "bool",
          "name": "completed",
          "type": "bool"
        },
        {
          "internalType": "bool",
          "name": "paid",
          "type": "bool"
        }
      ],
      "stateMutability": "view",
      "type": "function",
      "constant": true
    },
    {
      "inputs": [
        {
          "internalType": "uint256",
          "name": "_price",
          "type": "uint256"
        }
      ],
      "name": "createJob",
      "outputs": [],
      "stateMutability": "nonpayable",
      "type": "function"
    },
    {
      "inputs": [
        {
          "internalType": "uint256",
          "name": "_jobId",
          "type": "uint256"
        }
      ],
      "name": "acceptJob",
      "outputs": [],
      "stateMutability": "nonpayable",
      "type": "function"
    },
    {
      "inputs": [
        {
          "internalType": "uint256",
          "name": "_jobId",
          "type": "uint256"
        }
      ],
      "name": "completeJob",
      "outputs": [],
      "stateMutability": "nonpayable",
      "type": "function"
    },
    {
      "inputs": [
        {
          "internalType": "uint256",
          "name": "_jobId",
          "type": "uint256"
        }
      ],
      "name": "payFreelancer",
      "outputs": [],
      "stateMutability": "payable",
      "type": "function",
      "payable": true
    }
  ],
  "bytecode": "0x608060405234801561001057600080fd5b50610f2b806100206000396000f3fe6080604052600436106100555760003560e01c8063180aedf31461005a5780634c5d8a0f1461009c578063529402b6146100c757806363b2f3c9146100e3578063a1c0d32f1461010c578063f4b1d37614610135575b600080fd5b34801561006657600080fd5b50610081600480360381019061007c9190610918565b61015e565b60405161009396959493929190610cf6565b60405180910390f35b3480156100a857600080fd5b506100b16101f4565b6040516100be9190610cb2565b60405180910390f35b6100e160048036038101906100dc9190610918565b6101fa565b005b3480156100ef57600080fd5b5061010a60048036038101906101059190610918565b610477565b005b34801561011857600080fd5b50610133600480360381019061012e9190610918565b6105fc565b005b34801561014157600080fd5b5061015c60048036038101906101579190610918565b610751565b005b60016020528060005260406000206000915090508060000154908060010160009054906101000a900473ffffffffffffffffffffffffffffffffffffffff16908060020160009054906101000a900473ffffffffffffffffffffffffffffffffffffffff16908060030154908060040160009054906101000a900460ff16908060040160019054906101000a900460ff16905086565b60005481565b60006001600083815260200190815260200160002090503373ffffffffffffffffffffffffffffffffffffffff168160020160009054906101000a900473ffffffffffffffffffffffffffffffffffffffff1673ffffffffffffffffffffffffffffffffffffffff16146102a3576040517f08c379a000000000000000000000000000000000000000000000000000000000815260040161029a90610c12565b60405180910390fd5b8060040160009054906101000a900460ff166102f4576040517f08c379a00000000000000000000000000000000000000000000000000000000081526004016102eb90610c92565b60405180910390fd5b8060040160019054906101000a900460ff1615610346576040517f08c379a000000000000000000000000000000000000000000000000000000000815260040161033d90610bb2565b60405180910390fd5b8060030154341461038c576040517f08c379a000000000000000000000000000000000000000000000000000000000815260040161038390610c72565b60405180910390fd5b60018160040160016101000a81548160ff0219169083151502179055508060010160009054906101000a900473ffffffffffffffffffffffffffffffffffffffff1673ffffffffffffffffffffffffffffffffffffffff166108fc349081150290604051600060405180830381858888f19350505050158015610413573d6000803e3d6000fd5b507f9c9c7be79d0a80d50ba29cc761ba8a73fe24080e7acf62b83bf2dbf0c5096b0c828260010160009054906101000a900473ffffffffffffffffffffffffffffffffffffffff163460405161046b93929190610d57565b60405180910390a15050565b6000600160008381526020019081526020016000209050600073ffffffffffffffffffffffffffffffffffffffff168160020160009054906101000a900473ffffffffffffffffffffffffffffffffffffffff1673ffffffffffffffffffffffffffffffffffffffff161415610522576040517f08c379a000000000000000000000000000000000000000000000000000000000815260040161051990610c52565b60405180910390fd5b600073ffffffffffffffffffffffffffffffffffffffff168160010160009054906101000a900473ffffffffffffffffffffffffffffffffffffffff1673ffffffffffffffffffffffffffffffffffffffff16146105b5576040517f08c379a00000000000000000000000000000000000000000000000000000000081526004016105ac90610c32565b60405180910390fd5b338160010160006101000a81548173ffffffffffffffffffffffffffffffffffffffff021916908373ffffffffffffffffffffffffffffffffffffffff1602179055505050565b60006001600083815260200190815260200160002090503373ffffffffffffffffffffffffffffffffffffffff168160010160009054906101000a900473ffffffffffffffffffffffffffffffffffffffff1673ffffffffffffffffffffffffffffffffffffffff16146106a5576040517f08c379a000000000000000000000000000000000000000000000000000000000815260040161069c90610bf2565b60405180910390fd5b8060040160009054906101000a900460ff16156106f7576040517f08c379a00000000000000000000000000000000000000000000000000000000081526004016106ee90610bd2565b60405180910390fd5b60018160040160006101000a81548160ff0219169083151502179055507f16a7286196330eaff0c7db2ec34ead9c6d2d023b356b62ee7ea644c842a84b678233604051610745929190610ccd565b60405180910390a15050565b60008081548092919061076390610e66565b91905055506040518060c001604052806000548152602001600073ffffffffffffffffffffffffffffffffffffffff1681526020013373ffffffffffffffffffffffffffffffffffffffff1681526020018281526020016000151581526020016000151581525060016000805481526020019081526020016000206000820151816000015560208201518160010160006101000a81548173ffffffffffffffffffffffffffffffffffffffff021916908373ffffffffffffffffffffffffffffffffffffffff16021790555060408201518160020160006101000a81548173ffffffffffffffffffffffffffffffffffffffff021916908373ffffffffffffffffffffffffffffffffffffffff1602179055506060820151816003015560808201518160040160006101000a81548160ff02191690831515021790555060a08201518160040160016101000a81548160ff0219169083151502179055509050507f8678ba2d99dba901dafc51009f8d402d37a5a0275752cf0e263b827aeca906f260005433836040516108f893929190610d8e565b60405180910390a150565b60008135905061091281610ede565b92915050565b60006020828403121561092a57600080fd5b600061093884828501610903565b91505092915050565b61094a81610e30565b82525050565b61095981610de8565b82525050565b61096881610dd6565b82525050565b61097781610dfa565b82525050565b600061098a601183610dc5565b91507f4a6f6220616c726561647920706169642e0000000000000000000000000000006000830152602082019050919050565b60006109ca601683610dc5565b91507f4a6f6220616c726561647920636f6d706c657465642e000000000000000000006000830152602082019050919050565b6000610a0a602983610dc5565b91507f4f6e6c792074686520667265656c616e6365722063616e20636f6d706c65746560008301527f20746865206a6f622e00000000000000000000000000000000000000000000006020830152604082019050919050565b6000610a70601883610dc5565b91507f4f6e6c792074686520636c69656e742063616e207061792e00000000000000006000830152602082019050919050565b6000610ab0601583610dc5565b91507f4a6f6220616c72656164792061636365707465642e00000000000000000000006000830152602082019050919050565b6000610af0601283610dc5565b91507f4a6f6220646f65736e27742065786973742e00000000000000000000000000006000830152602082019050919050565b6000610b30601183610dc5565b91507f496e636f727265637420616d6f756e742e0000000000000000000000000000006000830152602082019050919050565b6000610b70601983610dc5565b91507f4a6f62206973206e6f7420636f6d706c65746564207965742e000000000000006000830152602082019050919050565b610bac81610e26565b82525050565b60006020820190508181036000830152610bcb8161097d565b9050919050565b60006020820190508181036000830152610beb816109bd565b9050919050565b60006020820190508181036000830152610c0b816109fd565b9050919050565b60006020820190508181036000830152610c2b81610a63565b9050919050565b60006020820190508181036000830152610c4b81610aa3565b9050919050565b60006020820190508181036000830152610c6b81610ae3565b9050919050565b60006020820190508181036000830152610c8b81610b23565b9050919050565b60006020820190508181036000830152610cab81610b63565b9050919050565b6000602082019050610cc76000830184610ba3565b92915050565b6000604082019050610ce26000830185610ba3565b610cef602083018461095f565b9392505050565b600060c082019050610d0b6000830189610ba3565b610d186020830188610950565b610d256040830187610950565b610d326060830186610ba3565b610d3f608083018561096e565b610d4c60a083018461096e565b979650505050505050565b6000606082019050610d6c6000830186610ba3565b610d796020830185610941565b610d866040830184610ba3565b949350505050565b6000606082019050610da36000830186610ba3565b610db0602083018561095f565b610dbd6040830184610ba3565b949350505050565b600082825260208201905092915050565b6000610de182610e06565b9050919050565b6000610df382610e06565b9050919050565b60008115159050919050565b600073ffffffffffffffffffffffffffffffffffffffff82169050919050565b6000819050919050565b6000610e3b82610e42565b9050919050565b6000610e4d82610e54565b9050919050565b6000610e5f82610e06565b9050919050565b6000610e7182610e26565b91507fffffffffffffffffffffffffffffffffffffffffffffffffffffffffffffffff821415610ea457610ea3610eaf565b5b600182019050919050565b7f4e487b7100000000000000000000000000000000000000000000000000000000600052601160045260246000fd5b610ee781610e26565b8114610ef257600080fd5b5056fea26469706673582212207f959b43215324258b526422d300dba6142e76f18530930ed606cbd6c9eae44c64736f6c63430008000033",
  "immutableReferences": {},
  "source": "// SPDX-License-Identifier: MIT\npragma solidity ^0.8.0;\n\ncontract FreelanceMarketplace {\n    struct Job {\n        uint id;\n        address payable freelancer;\n        address payable client;\n        uint price;\n        bool completed;\n        bool paid;\n    }\n\n    uint public jobCount;\n    mapping(uint => Job) public jobs;\n\n    event JobCreated(uint id, address client, uint price);\n    event JobCompleted(uint id, address freelancer);\n    event JobPaid(uint id, address freelancer, uint amount);\n\n    function createJob(uint _price) public {\n        jobCount++;\n        jobs[jobCount] = Job(jobCount, payable(address(0)), payable(msg.sender), _price, false, false);\n        emit JobCreated(jobCount, msg.sender, _price);\n    }\n\n    function acceptJob(uint _jobId) public {\n        Job storage job = jobs[_jobId];\n        require(job.client != address(0), \"Job doesn't exist.\");\n        require(job.freelancer == address(0), \"Job already accepted.\");\n        job.freelancer = payable(msg.sender);\n    }\n\n    function completeJob(uint _jobId) public {\n        Job storage job = jobs[_jobId];\n        require(job.freelancer == msg.sender, \"Only the freelancer can complete the job.\");\n        require(!job.completed, \"Job already completed.\");\n        job.completed = true;\n        emit JobCompleted(_jobId, msg.sender);\n    }\n\n    function payFreelancer(uint _jobId) public payable {\n        Job storage job = jobs[_jobId];\n        require(job.client == msg.sender, \"Only the client can pay.\");\n        require(job.completed, \"Job is not completed yet.\");\n        require(!job.paid, \"Job already paid.\");\n        require(msg.value == job.price, \"Incorrect amount.\");\n        job.paid = true;\n        job.freelancer.transfer(msg.value);\n        emit JobPaid(_jobId, job.freelancer, msg.value);\n    }\n}\n",
  "sourcePath": "/home/owner/Projects/freelance-dapp/contracts/FreelanceMarketplace.sol",
  "compiler": {
    "name": "solc",
    "version": "0.8.0+commit.c7dfd78e.Emscripten.clang"
  },
  "schemaVersion": "3.4.16",
  "updatedAt": "2024-10-19T20:19:48.168Z",
  "networkType": "ethereum",
  "devdoc": {
    "kind": "dev",
    "methods": {},
    "version": 1
  },
  "userdoc": {
    "kind": "user",
    "methods": {},
    "version": 1
  }
}